:100000000C94B2010C94CF010C9410180C94CF01F5
:100010000C94CF010C94CF010C94CF010C94B31825
:100020000C94CF010C94CF010C946F080C947D17A5
:100030000C94CC170C94CF010C94CF010C94CF01ED
:100040000C94CF010C94AF1A0C94CF010C94CF01F7
:100050000C94CF010C94CF010C94CF010C94CF01E0
:100060000C94CF010C94CF01710278027F028602BA
:100070008D028D0294029B02A202A9026B0B880BD7
:1000800063176317631763176317ED0C760C9D0CEA
:100090006317631763176317C40CCF0CD70C040DD9
:1000A0004A0D870DE30F4E11CF1211144C142F156A
:1000B0002F152F152F15EC142F152F152F152F1564
:1000C0002F152F15F714CF1AFE1A251B2F1BBA1B3D
:1000D0005F1B811BE81F53216F21012C012C012C78
:1000E000012C012C012C012C012C012C012CD521DF
:1000F000012C0823B029512A5B2A612A612A612A2E
:10010000612A8C2A9C2ABD2AFE2A08000000BE9281
:100110002449123EABAAAA2ABECDCCCC4C3E00004C
:100120000080BEABAAAAAA3E00000000BF000000EB
:10013000803F0000000000084178D3BB4387D11303
:100140003D190E3CC3BD4282AD2B3E68EC8276BEAB
:10015000D98FE1A93E4C80EFFFBE01C4FF7F3F0075
:10016000000000000EF00E392000AF3832104F387A
:100170004420EF3756307F3768401F377A50AF360C
:100180008C603F369E70BF35B0804F35C290CF3403
:10019000D4A04F34E6B0CF33F8C03F330AD1BF32DA
:1001A0001CE12F322EF19F314001F03052116030AE
:1001B0006421C02F7631202F8841802E9A51E02D66
:1001C000AC61402DBE71902CD081F02BE291402B80
:1001D000F4A1902A06B2E02918C230292AD2802838
:1001E0003CE2D0274EF21027600261267212A12550
:1001F0008422F12496324124A8428123BA52D1228A
:10020000CC621122DE726121F082B12002930120C2
:1002100014A3411F26B3911E38C3E11D4AD3311DDB
:100220005CE3811C6EF3E11B8003321B9213921A74
:10023000A423E219B6334219C843A218DA530218AC
:10024000EC636217FE73D216108432162294A21544
:1002500034A4121546B4821458C4F2136AD472132B
:100260007CE4E2128EF46212A004E311B214631172
:10027000C424F310D6347310E8440310FA54930FD7
:100280000C65230F1E75B30E3085430E4295E30DAA
:1002900054A5830D66B5130D78C5C30C8AD5630CC0
:1002A0009CE5030CAEF5B30BC005540BD215040B43
:1002B000E425B40AF635640A0846140A1A56D40925
:1002C0002C6684093E7644095086F4086296B40888
:1002D00074A6740886B6340898C60408AAD6C4075B
:1002E000BCE68407CEF65407E0062507F216E506BD
:1002F0000427B50616378506284755063A572506BA
:100300004C6705065E77D5057087A505829785053C
:1003100094A75505A6B73505B8C71505CAD7E5048E
:10032000DCE7C504EEF7A50400088604121866048D
:100330002428460436382604484816045A58F6033A
:100340006C68D6037E78B6039088A603A2988603CD
:10035000000406060505010207033C1414141414D6
:100360001414141411241FBECFEFD8E0DEBFCDBF8C
:1003700011E0A0E0B1E0EAE1F1E602C005900D92E3
:10038000A630B107D9F726E0A6E0B1E001C01D9282
:10039000A037B207E1F70E94CD1B0C948B300C9470
:1003A000000080917801863021F0809178018730BB
:1003B00089F48091670190916801E0917901F0E002
:1003C000E65AFC4FE4918E1B91099093680180934B
:1003D000670150C0809178012091670130916801D8
:1003E000883071F58091650190916601EAE0F0E056
:1003F000BF010E94D22F62177307C0F520916701D9
:10040000309168018091650190916601BF010E9461
:10041000D22F261B370BC90165E070E00E94D22F56
:1004200070932E0160932D01209167013091680136
:1004300080912D0190912E0128173907B8F007C03F
:1004400080912D0190912E012817390778F0809125
:1004500067019091680120912D0130912E01821B3E
:10046000930B909368018093670104C01092680118
:1004700010926701E0916701F09168018091650138
:10048000909166012AE030E0B9010E94D22FE61770
:10049000F707E0F48091650190916601B9010E942F
:1004A000D22F709368016093670180915101909100
:1004B0005201A0915301B091540190618093510178
:1004C00090935201A0935301B0935401089590E08A
:1004D0008A30910508F043C0FC01EC5CFF4F0C949E
:1004E0001C3010923A01109235015F985D9A089580
:1004F00081E080933A01109235015D980895109241
:100500003A0183E0809335015F98089583E08093FA
:100510003A01109235015D98089585E080933A0183
:10052000109235015D98089584E080933A0110920D
:1005300035015D98089582E080933A01109235016B
:100540005D98089587E080933A01109235015D9897
:10055000089586E080933A01109235015D980895E0
:100560004F925F926F927F928F929F92AF92BF92C3
:10057000CF92DF92EF92FF920F931F93CF93DF936F
:1005800000D000D0CDB7DEB7A0E0B0E024E631E087
:1005900040E050E008C04F5F5F4F2C5F3F4F4B374C
:1005A000510509F4FFC0F901C590D590E590F4908C
:1005B00074E1F694E794D794C7947A95D1F78C15A3
:1005C0009D05AE05BF0538F34115510509F0D1C0B1
:1005D000E8E6F1E0C590D590E590F49004E1F6945A
:1005E000E794D794C7940A95D1F7E4E6F1E04590F3
:1005F0005590659074905301420184E1B694A7949C
:10060000979487948A95D1F789829A82AB82BC822B
:1006100044E651E028E631E0D501C401AA27BB2712
:10062000FA01611156C045915591659174914A0145
:100630005B01EFE09E22AA24BB2453FF05C0F0EF2C
:100640009F2AAA24AA94BA2CF90105911591259103
:100650003491B901A8015F706627772713FF03C0A3
:10066000506F6F6F7F6F9A01AB01281939094A09E2
:100670005B0949805A806B807C80481A590A6A0A53
:100680007B0AC301B2010E94B62F29813A814B81B6
:100690005C812C193D094E095F090E94FA2F280D33
:1006A000391D4A1D5B1DC9010F900F900F900F90CF
:1006B000DF91CF911F910F91FF90EF90DF90CF903E
:1006C000BF90AF909F908F907F906F905F904F9072
:1006D000089545915591659174914427507F6F70AD
:1006E0007727ECE07695679557954795EA95D1F78A
:1006F00047FF03C05F6F6F6F7F6F440F551F661F0B
:10070000771F4A015B01880C991CAA1CBB1C880C32
:10071000991CAA1CBB1C840E951EA61EB71EF901AF
:1007200045915591659174914427507F6F7077275B
:100730000CE076956795579547950A95D1F747FF51
:1007400003C05F6F6F6F7F6F8A019B01000F111FE6
:10075000221F331FB901A801440F551F661F771FC1
:10076000440F551F661F771F400F511F621F731FD5
:100770007ACF440F551F440F551F405A5E4FFA0160
:1007800045905590659074905301420114E1B694E0
:10079000A794979487941A95D1F789829A82AB820D
:1007A000BC823ECFE8E4F3E04590559065907490AC
:1007B0005301420194E1B694A794979487949A9533
:1007C000D1F789829A82AB82BC8248E453E02CE460
:1007D00033E0D701C601AA27BB2722CF00000000C3
:1007E000E0917C01F0E0E05BFC4F8491880F880F82
:1007F000880F90917801943030F0909178019C307E
:1008000010F484600895909178019D3028F09091C3
:100810007801913108F480640895CF93DF9380913B
:10082000510190915201A0915301B0915401A091B6
:10083000230483FF1DC08091780180689BE09A9F0C
:10084000D0011124A95DBB4F8C93E09123048091CA
:10085000D4059E9FF0011124EC5DFB4F80838091B5
:100860001B0690911C06A0911D06B0911E061BC090
:10087000909178018BE08A9FD0011124A95DBB4F34
:100880009C93E09123049091D5058E9FF001112453
:10089000EC5DFB4F908380911F0690912006A09104
:1008A0002106B0912206E09123042BE02E9FF00157
:1008B0001124E75DFB4F8083E09123042E9FF0011C
:1008C0001124E65DFB4F9083E09123042E9FF001FD
:1008D0001124E55DFB4FA0838091000190910101FF
:1008E000A0910201B0910301E09123048F3F9F4F3B
:1008F000AF4FBF4FB9F42E9FF0011124E45DFB4FC1
:100900001082E09123042E9FF0011124E35DFB4F40
:100910001082E09123042E9FF0011124E25DFB4F31
:1009200010822EC08091000190910101A0910201DE
:10093000B09103012E9FF0011124E45DFB4F8083F1
:10094000C09123048091000190910101A0910201C6
:10095000B09103012C9FE0011124C35DDB4F98830C
:10096000E09123048091000190910101A091020186
:10097000B09103012E9FF0011124E25DFB4FA08393
:10098000C0912304D0E00E94F0032BE02C9FD00103
:100990002D9FB00D1124AB5DBB4F8C9380917801DE
:1009A000823069F4E091230480915F0190916001AD
:1009B0002E9FF0011124EA5DFB4F80832CC08091B3
:1009C0007801853021F080917C01833099F4E091A9
:1009D000230480915F019091600105966AE070E0C8
:1009E0000E94D22F8BE0E89FF0011124EA5DFB4FBB
:1009F000608311C0E09123048091610190916201B4
:100A000005966AE070E00E94D22F2E9FF00111241B
:100A1000EA5DFB4F6083E0912304809137019BE006
:100A2000E99FF0011124E85DFB4F8083DF91CF91B6
:100A3000089580917C01882309F44BC060912304C0
:100A4000909123048BE0869FB001112462507E4F69
:100A5000899FC00111244BE050E08C5D9B4F0E94A8
:100A60006E30809123048F3118F01092230405C05A
:100A7000809123048F5F80932304609123048DEF82
:100A800091E00E9478308091E5059091E60501960D
:100A90009093E6058093E5056091E5057091E60584
:100AA0008FEB93E00E94863080917C01833049F087
:100AB00080912306909124060196909324068093BA
:100AC000230660912306709124068DEF93E00C9429
:100AD00086300895813011F40C94D1018091670122
:100AE0009091680120917201820F911D909368018D
:100AF0008093670140916701509168018091650181
:100B0000909166012091650130916601F3E0369580
:100B10002795FA95E1F7821B930B8417950798F4B4
:100B20008091650190916601209165013091660187
:100B3000E3E036952795EA95E1F7821B930B9093B6
:100B40006801809367010895F894E0917B01F0E0DB
:100B5000EE0FFF1FE05BF94F80819181E0917B01F7
:100B6000F0E0EE0FFF1FE654FE4F208131814091EF
:100B7000670150916801840F951F36952795820F64
:100B8000931F909389008093880080EC809380006D
:100B9000B19A80916F00826080936F0020918800ED
:100BA000309189008091840090918500281B390B39
:100BB000809165019091660128173907D0F0409126
:100BC000650150916601CA01880F991F840F951F16
:100BD000969587958217930760F019990AC08091BE
:100BE0008400909185000A969093890080938800F4
:100BF00020C04091650150916601CA01880F991F7C
:100C0000840F951F969587958217930790F41999ED
:100C100010C08091840090918500209167013091EF
:100C20006801820F931F845F9140909389008093A5
:100C30008800789408950F931F93CF93DF93EC016E
:100C400080917C018883809178018D3058F080916B
:100C50007801813138F480915B0190915C019B8334
:100C60008A8306C080916101909162019B838A838F
:100C700080916501909166019D838C836091B5019F
:100C80007091B6018091B7019091B8012AEF30E0E0
:100C900040E050E00E94FA2F3987288780915D015B
:100CA00090915E019F838E8340915101509152013A
:100CB000609153017091540143FF04C08091D605A7
:100CC000898303C08091D70589830091170610910D
:100CD00018062091190630911A064091130650917A
:100CE000140660911506709116069091D7058091B3
:100CF000D605400F511F621F731F490F511D611D03
:100D0000711D480F511D611D711D4C875D876E87D8
:100D10007F8780912306909124069B878A87DF91A5
:100D2000CF911F910F910895282F91E0121614F082
:100D300033E03DC0809122018330D0F78091B1052E
:100D4000813011F4429A07C08091B105823011F4CC
:100D5000419A01C0599A8091B105833030F4809155
:100D6000B1058F5F8093B10502C09093B10580916A
:100D700022018F5F809322012150D8CF80912201E0
:100D80008823F1F09091B105809122019D5F981B1D
:100D9000943020F0892F632F0E94C62F913051F498
:100DA0004298809122018150809322012F5F27FF7A
:100DB00007C0E4CF923011F44198F3CF5998F1CFA6
:100DC00008954091510150915201609153017091E9
:100DD0005401E82FE695982F9170F0E043FF06C08C
:100DE000E054FA4F8081911109C005C0EB53FA4FCE
:100DF0008081911103C082958F7008958F7008953E
:100E000040915101509152016091530170915401F0
:100E1000E82FE695982F9170F0E043FF06C0E65367
:100E2000FA4F8081911109C005C0E153FA4F8081CA
:100E3000911103C082958F7008958F700895962F39
:100E400040915101509152016091530170915401B0
:100E5000282F2170E82FE695F0E043FF06C0E0540C
:100E6000FA4F808121110DC005C0EB53FA4F8081EC
:100E7000211107C08F7020E1929F800D1124808383
:100E80000895807F890F80830895962F40915101A6
:100E9000509152016091530170915401282F21709B
:100EA000E82FE695F0E043FF06C0E653FA4F808155
:100EB00021110DC005C0E153FA4F8081211107C0F7
:100EC0008F7020E1929F800D112480830895807F90
:100ED000890F80830895CF93DF9380915101909182
:100EE0005201A0915301B091540183FF65C08091DC
:100EF000D6050E94E106E82FF0E0ED54FA4F80811C
:100F0000E091D605F0E0E756FA4F208190E0059693
:100F100030E0821793070CF03EC0E091D605F0E078
:100F2000E756FA4FC0818091D6050E94E106E82F6E
:100F3000F0E0ED54FA4F80814091D6052BEF3FEF62
:100F4000281B31092C0F311D8AE090E0841B910988
:100F500097FD019695958795820F931F2091D60551
:100F60006AE070E0621B71090E94D22F2091D605C1
:100F700030E0E091D605F0E0E756FA4F4081CB0132
:100F80006530710510F084E090E0481BF901E656E9
:100F9000FA4F408375C0C091D605D0E08091D60548
:100FA0000E94E106E82FF0E0ED54FA4F80818B5F5C
:100FB000C656DA4F888364C08091D7050E94E10647
:100FC000E82FF0E0EA54FA4F8081E091D705F0E095
:100FD000ED55FA4F208190E0059630E08217930797
:100FE0000CF03EC0E091D705F0E0ED55FA4FC0811E
:100FF0008091D7050E94E106E82FF0E0EA54FA4F0D
:1010000080814091D7052BEF3FEF281B31092C0F32
:10101000311D8AE090E0841B910997FD019695951A
:101020008795820F931F2091D7056AE070E0621BBD
:1010300071090E94D22F2091D70530E0E091D705A9
:10104000F0E0ED55FA4F4081CB016530710510F0AD
:1010500084E090E0481BF901EC55FA4F408310C042
:10106000C091D705D0E08091D7050E94E106E82F16
:10107000F0E0EA54FA4F80818B5FCC55DA4F8883D9
:10108000DF91CF9108958091510190915201A091EB
:101090005301B091540183FF04C08091DA058F7031
:1010A00008958091DA0582958F70089540915101DD
:1010B0005091520160915301709154019091DA0561
:1010C00043FF05C0907F980F9093DA0508959F70B5
:1010D00020E1829F900D11249093DA0508951F92CC
:1010E0000F920FB60F9211248F929F92AF92BF92E0
:1010F000CF92DF92EF92FF922F933F934F935F93A4
:101100006F937F938F939F93AF93BF93CF93EF93FF
:10111000FF9320918600309187008091810086FDA9
:101120000CC580918000807C803829F480918200F9
:101130008068809382008091510190915201A0912A
:101140005301B091540183FF03C08BEA9BE10CC0B3
:101150008091510190915201A0915301B09154019D
:1011600082FFF3CF84E391E2820F931F90938B0071
:1011700080938A0010928000809181008064809327
:10118000810086B3846286BB84E280936F0088E02E
:101190008093B901789480917B01811104C087E02C
:1011A00080937A0105C080917B01815080937A0100
:1011B000E0917B01F0E0EE0FFF1FE05BF94F318320
:1011C00020838091590190915A01892B09F467C2BB
:1011D0008091510190915201A0915301B09154011D
:1011E00082FF5DC2F8946091450170914601809143
:1011F000470190914801A0905901B0905A010E9476
:10120000A12D6B017C01B50180E090E00E94A12D31
:101210009B01AC01C701B6010E940D2D78940E947C
:10122000FF2E20E030E44CE155E40E94782E20E0CF
:1012300030EC4FE754E40E940D2D0E94DB2E0E94FB
:10124000752D7093600160935F0180917801863005
:10125000B8F0809178018C3098F420915F01309142
:10126000600180912B0190912C018217930740F42B
:1012700080915F019091600190932C0180932B01EC
:101280008091270190912801E0913201F0E0EE0F6A
:10129000FF1FE65BF94F20813181821B930B9093F6
:1012A000280180932701E0913201F0E080915F01F5
:1012B00090916001EE0FFF1FE65BF94F91838083F1
:1012C0002091270130912801E0913201F0E0EE0FEA
:1012D000FF1FE65BF94F80819181820F931F9093EE
:1012E0002801809327012091270130912801A5E54D
:1012F000B5E50E94223070588F4F9F4FAA27BB2719
:1013000090932A018093290180913201823030F438
:10131000809132018F5F8093320102C010923201BE
:10132000809178018630B8F080917801883098F407
:101330002091290130912A0180915D0190915E01F7
:101340008217930740F48091290190912A0190938C
:101350005E0180935D018091570190915801E09169
:101360007101F0E0EE0FFF1FE358FE4F2081318145
:10137000821B930B9093580180935701E091710168
:10138000F0E080915F0190916001EE0FFF1FE35844
:10139000FE4F918380832091570130915801E09155
:1013A0007101F0E0EE0FFF1FE358FE4F8081918145
:1013B000820F931F909358018093570180915101A0
:1013C00090915201A0915301B09154012091570185
:1013D0003091580187FD14C08091710160917101B5
:1013E00090E0019696958795820F931F70E06F5F4E
:1013F0007F4F0E94D22F709362016093610114C0ED
:10140000AAE9B9E10E94223070588F4F9F4FAA2756
:10141000BB270196A11DB11DB695A79597958795F8
:10142000909362018093610180917101833130F466
:10143000809171018F5F8093710113C010927101CF
:101440008091510190915201A0915301B0915401AA
:1014500080688093510190935201A0935301B093FF
:1014600054018091710181111AC1809151019091B3
:101470005201A0915301B091540190FF10C180918D
:1014800078018D3008F40BC180917801813108F02A
:1014900006C18091410190914201A0914301B09118
:1014A0004401E0917001F0E0EE0FFF1FEA5DF94F9B
:1014B00020813181821B930BA109B10980934101E5
:1014C00090934201A0934301B0934401E0917001D5
:1014D000F0E08091610190916201EE0FFF1FEA5DE3
:1014E000F94F918380838091410190914201A091B5
:1014F0004301B0914401E0917001F0E0EE0FFF1F55
:10150000EA5DF94F20813181820F931FA11DB11D2A
:101510008093410190934201A0934301B093440111
:101520008091510190915201A0915301B0915401C9
:1015300091FD3BC08090410190904201A0904301F9
:10154000B090440140917001E0917001242F30E08F
:1015500040E050E02F5F3F4F4F4F5F4FAAE0B0E0B9
:101560000E9431306B017C01F694E794D794C794C4
:10157000A50194010E943130C60ED71EE81EF91E47
:101580002E2F30E040E050E02F5F3F4F4F4F5F4F36
:101590000E9431309B01AC01C701B6010E94FA2FB5
:1015A00030935C0120935B0145C080915101909183
:1015B0005201A0915301B091540120914101309109
:1015C0004201409143015091440183FF1AC064E0FD
:1015D00070E081E090E00E94B62F70588F4F9F4FCF
:1015E0009C0144275527A9E3BEE00E943130705882
:1015F0008F4F9F4FAA27BB2790935C0180935B017D
:1016000019C064E070E081E090E00E94B62F70584D
:101610008F4F9F4F9C0144275527A1E1B1E10E94C4
:10162000313070588F4F9F4FAA27BB2790935C0192
:1016300080935B018091510190915201A0915301DF
:10164000B091540183FF04C080917001813170F02A
:101650008091510190915201A0915301B091540198
:1016600083FD0AC0809170018E3030F4809170014A
:101670008F5F8093700113C01092700180915101AF
:1016800090915201A0915301B091540192608093C6
:10169000510190935201A0935301B0935401F894D7
:1016A0001092450110924601109247011092480194
:1016B00010925A011092590178948091780190E02B
:1016C000FC013397E431F10510F00C946317E25CF0
:1016D000FF4F0C941C30409100015091010160912A
:1016E0000201709103018091490190914A01A091FA
:1016F0004B01B0914C010796A11DB11D4817590728
:101700006A077B0710F40C9463170E94A40565C157
:101710008091510190915201A0915301B0915401D7
:1017200083FF2AC08091D60581110AC080915101A2
:1017300090915201A0915301B091540184FD42C097
:101740002091D6058091D80530E08F7090E0281761
:1017500039074CF48091D6050E94E1069091220150
:10176000C82FC91B41C08091B205863958F58091B8
:10177000B2058436A8F12FC08091D70581110BC026
:101780008091510190915201A0915301B091540167
:1017900084FD809122012091D7058091D90530E008
:1017A0008F7090E0281739074CF48091D7050E947C
:1017B000E10690912201C82FC91B16C08091B30584
:1017C000863928F080912201C3E0C81B0DC08091AA
:1017D000B305843628F080912201C2E0C81B04C002
:1017E00080912201C1E0C81B1C1664F5C090000165
:1017F000D0900101E0900201F09003014091490175
:1018000050914A0160914B0170914C014E5F5F4FC6
:101810006F4F7F4FC416D506E606F70698F081E0B5
:101820000E949406409100015091010160910201D3
:10183000709103014093490150934A0160934B0119
:1018400070934C0180912201882309F44BC0C1118F
:1018500049C08091510190915201A0915301B091E2
:10186000540184FF18C04091000150910101609122
:101870000201709103018091490190914A01A09168
:101880004B01B0914C010796A11DB11D4817590796
:101890006A077B0710F58091510190915201A09148
:1018A0005301B091540184FD1DC04091000150913D
:1018B00001016091020170910301809149019091B1
:1018C0004A01A0914B01B0914C010796A11DB11D99
:1018D000481759076A077B0728F0809178018F5FC6
:1018E000809378010E94A4050C9463174091000135
:1018F00050910101609102017091030180914901B1
:1019000090914A01A0914B01B0914C010A96A11D02
:10191000B11D481759076A077B0710F40C94631729
:1019200088B1877D88B910928000299880917801CC
:101930008F5F809378010C946317809100019091E0
:101940000101A0910201B09103018A3F9105A10517
:10195000B10510F40C9463178091510190915201DC
:10196000A0915301B09154019160809351019093E3
:101970005201A0935301B0935401809178018F5F7D
:10198000809378010C9463178091510190915201DA
:10199000A0915301B0915401A1FF77C0C7C0299A0B
:1019A000809178018F5F809378010C94631743983E
:1019B000459A8091510190915201A0915301B091AB
:1019C0005401AD7F8093510190935201A093530134
:1019D000B09354018DE080933C018091000190917F
:1019E0000101A0910201B0910301809349019093FC
:1019F0004A01A0934B01B0934C01809178018F5F15
:101A0000809378010C94631740910001509101017B
:101A100060910201709103018091490190914A0106
:101A2000A0914B01B0914C010396A11DB11D481727
:101A300059076A077B0710F40C9463172998809163
:101A4000000190910101A0910201B09103018093E6
:101A5000490190934A01A0934B01B0934C018091AE
:101A60006501909166016AE070E00E94D22F709348
:101A700068016093670180917C01873009F456C04A
:101A800080917C01843009F451C086E18093780113
:101A90000C94631740910001509101016091020183
:101AA000709103018091490190914A01A0914B01ED
:101AB000B0914C01CC96A11DB11D481759076A077A
:101AC0007B07B0F4409167015091680180916501F6
:101AD00090916601209165013091660163E0369531
:101AE00027956A95E1F7821B930B4817590728F051
:101AF000809178018F5F8093780180913C01811102
:101B00000C94631788B1877D88B90C9463178DEFA7
:101B10000E949406449A8FEF9FEFDC0180930001AE
:101B200090930101A0930201B09303018091780189
:101B30008F5F809378010C94631780916F008F7D85
:101B400080936F007894E0917B01F0E0EE0FFF1F2F
:101B5000EA5EFD4F31832083E0917B01F0E0A091AC
:101B60007B01B0E0AA0FBB1FAA5EBD4F8D919C9177
:101B7000A0917B01B0E0AA0FBB1FA05BB94F2D91D4
:101B80003C91821B930BEE0FFF1FE654FE4F918397
:101B900080838091510190915201A0915301B091A5
:101BA000540182FD05C080917B01882309F4C3C0E4
:101BB000E0917B01F0E0EE0FFF1FE05BF94F408109
:101BC0005181E0917B01F0E0EE0FFF1FE654FE4FE4
:101BD00020813181E0917A01F0E0EE0FFF1FE05BA0
:101BE000F94F60817181E0917A01F0E0EE0FFF1F03
:101BF000E654FE4F8081918136952795261B370B41
:101C0000240F351F96958795281B390B809151011C
:101C100090915201A0915301B091540182FD0DC0E9
:101C200028364BE2340738F42C308EE1380728F49C
:101C30002CE03EE102C027E63BE280914D0190910D
:101C40004E01A0914F01B0915001E0917B01F0E075
:101C5000EE0FFF1FEB55FE4F40815181841B950B0A
:101C6000A109B10980934D0190934E01A0934F01BA
:101C7000B0935001E0917B01F0E0EE0FFF1FEB55B8
:101C8000FE4F3183208380914D0190914E01A091B0
:101C90004F01B0915001E0917B01F0E0EE0FFF1F8A
:101CA000EB55FE4F20813181820F931FA11DB11D85
:101CB00080934D0190934E01A0934F01B09350013A
:101CC0008091510190915201A0915301B091540122
:101CD00082FD1BC060914D0170914E0180914F01BA
:101CE0009091500130917B0120917B013695630FDB
:101CF000711D811D911D30E040E050E00E94FA2FDF
:101D0000309366012093650116C080914D0190913A
:101D10004E01A0914F01B09150010496A11DB11D3B
:101D2000C3E0B695A79597958795CA95D1F79093F7
:101D30006601809365018091510190915201A091BB
:101D40005301B091540182FF31C1E0917A01F0E07A
:101D5000EE0FFF1FE05AF94F80819181E0917A01E7
:101D6000F0E0EE0FFF1FE653FE4F40815181E091FE
:101D70007A01F0E0EE0FFF1FE05AF94FA081B18128
:101D8000E0917A01F0E0EE0FFF1FE05BF94FE08099
:101D9000F180E0917A01F0E0EE0FFF1FEA5EFD4F67
:101DA00020813181E0917A01F0E0EE0FFF1FE05BCE
:101DB000F94F608171818E199F094A1B5B0B569503
:101DC0004795840F951F261B370B36952795821B49
:101DD000930BE0917B01F0E0EE0FFF1FEB55FE4F00
:101DE000208131812817390710F480E090E0E091DC
:101DF0007B01F0E0EE0FFF1FEB55FE4F408151815C
:101E00009C01A4EBB0E00E9422309A0140E050E037
:101E10000E94FA2F209374018091630190916401D4
:101E2000E0917501F0E0EE0FFF1FE652FE4F40819A
:101E30005181841B950B9093640180936301E09121
:101E40007501F0E0EE0FFF1FE652FE4F3183208355
:101E50002091630130916401E0917501F0E0EE0F93
:101E6000FF1FE652FE4F80819181820F931F909356
:101E70006401809363018091510190915201A0917E
:101E80005301B0915401209163013091640192FD9E
:101E900012C0809175016091750190E00196969550
:101EA0008795820F931F70E06F5F7F4F0E94D22F44
:101EB000609376010BC0A9E8B8E00E942230705808
:101EC0008F4F9F4FAA27BB278093760180915101A6
:101ED00090915201A0915301B091540193FD0CC017
:101EE000E0917501F0E0EE0FFF1FE652FE4F80819A
:101EF00091818093770128C08091750181110BC079
:101F000020911402309115028091DA019091DB0149
:101F1000820F931F14C0E0917501F0E0EE0FFF1FD8
:101F2000E852FE4F80819181E0917501F0E0EE0F63
:101F3000FF1FE652FE4F20813181820F931F0196D1
:101F40009695879580937701809175018D3130F456
:101F5000809175018F5F8093750113C01092750198
:101F60008091510190915201A0915301B09154017F
:101F700094608093510190935201A0935301B093C8
:101F8000540180917501882389F0809151019091CD
:101F90005201A0915301B091540198608093510176
:101FA00090935201A0935301B09354018091780112
:101FB00090E0FC013597E131F10508F050C5EE5A8B
:101FC000FF4F0C941C3080917701809373018091B6
:101FD000290190912A019093560180935501809197
:101FE000510190915201A0915301B091540183FF8E
:101FF00035C0E0912201F0E0ED54FA4F808181116B
:102000002DC09091D6058091D8058F70981751F00A
:102010008091510190915201A0915301B0915401CE
:1020200084FD1CC0E0912201F0E080917301ED5429
:10203000FA4F8083E0912201F0E020915501309128
:102040005601AAE9B9E10E94223070588F4F9F4F84
:10205000AA27BB27E754FA4F80833EC080915101E5
:1020600090915201A0915301B091540183FD34C06D
:10207000E0912201F0E0EA54FA4F808181112CC0F6
:102080009091D7058091D9058F70981751F0809164
:10209000510190915201A0915301B091540184FDDE
:1020A0001BC0E0912201F0E080917301EA54FA4FE5
:1020B0008083E0912201F0E020915501309156019A
:1020C000AAE9B9E10E94223070588F4F9F4FAA278A
:1020D000BB27E454FA4F808380917C01811157C063
:1020E0008091AF0580FF53C08091510190915201C2
:1020F000A0915301B091540183FF1BC02091D605DC
:102100008091D80530E08F7090E0281739078CF067
:102110002091550130915601E0912201F0E0E75401
:10212000FA4F808144E1849FC001112482179307F4
:1021300028F18091510190915201A0915301B091E9
:10214000540183FD24C02091D7058091D90530E04A
:102150008F7090E028173907D4F020915501309105
:102160005601E0912201F0E0E454FA4F808144E10D
:10217000849FC00111248217930748F481E0809363
:102180007C010E940D0481E18093780168C48091F4
:10219000510190915201A0915301B091540183FFDC
:1021A00033C08091510190915201A0915301B0919F
:1021B000540184FF09C08091D6058823E1F1809104
:1021C000DB0580936F013CC08091D605882399F18F
:1021D0002091D6058091D80530E08F7090E0E09195
:1021E0007901F0E0E656FA4F28173907E4F18081CB
:1021F00080936F01E0917901F0E0EA57FA4F808116
:10220000869580936D0142C0809151019091520159
:10221000A0915301B091540184FF09C08091D6056B
:10222000882349F08091DC0580936F0109C080917B
:10223000D705811109C0809173018D5D80936F0175
:1022400089E180936D0122C02091D7058091D90545
:1022500030E08F7090E0E0917901F0E0EC55FA4FBA
:10226000281739073CF4808180936F0189E18093BE
:102270006D010CC0808180936F01E0917901F0E0E5
:10228000E057FA4F8081869580936D010E94A405E6
:10229000809178018F5F80937801E1C38091510133
:1022A00090915201A0915301B091540183FF2BC032
:1022B0002091D6058091D80530E08F7090E02817E6
:1022C00039073CF020910F06309110062A5F310942
:1022D00002C027EE31E1C090D605D12CE12CF12CC3
:1022E000E0912201F0E0ED54FA4F80818823B1F1B2
:1022F000E0912201F0E0ED54FA4FA080B12C84E08F
:10230000A80EB11C73C02091D7058091D90530E08B
:102310008F7090E0281739073CF02091110630911A
:1023200012062C52314002C02CE735E1C090D7058F
:10233000D12CE12CF12CE0912201F0E0EA54FA4F8B
:102340008081882359F0E0912201F0E0EA54FA4FAD
:10235000A080B12C84E0A80EB11C48C040910001BF
:102360005091010160910201709103018091490136
:1023700090914A01A0914B01B0914C010397A109A2
:10238000B109481759076A077B0738F4A09077010D
:10239000B12C44E0A40EB11C29C040910001509121
:1023A00001016091020170910301809149019091B6
:1023B0004A01A0914B01B0914C010397A109B109C9
:1023C000481759076A077B0759F480917701809372
:1023D0007301A0907301B12C84E0A80EB11C06C05B
:1023E000A0907301B12C44E0A40EB11C8091220195
:1023F000833008F03FC0409100015091010160918D
:102400000201709103018091490190914A01A091CC
:102410004B01B0914C01481759076A077B0750F1EF
:102420008091770190E08A159B0520F580916701E6
:10243000909168012817390738F48091290190910B
:102440002A0188359240B0F081E00E949406809184
:10245000000190910101A0910201B0910301079642
:10246000A11DB11D8093490190934A01A0934B0196
:10247000B0934C01C114D104E104F104C1F44091C2
:10248000000150910101609102017091030180915E
:10249000490190914A01A0914B01B0914C010297E2
:1024A000A109B109481759076A077B07A8F44091A9
:1024B000000150910101609102017091030180912E
:1024C000490190914A01A0914B01B0914C014817EC
:1024D00059076A077B0710F00E94D1018091220101
:1024E000833029F4C114D104E104F10431F0809166
:1024F000770190E08A159B05C0F040910001509152
:102500000101609102017091030180914901909154
:102510004A01A0914B01B0914C010297A109B10968
:10252000481759076A077B0780F4909177018091DB
:102530006F01981750F48091510190915201A09130
:102540005301B091540194FF27C0CD28CE28CF2845
:1025500011F4109279018091670190916801909334
:102560002401809323018091000190910101A091A9
:102570000201B09103018093490190934A01A09315
:102580004B01B0934C0180912201809321018091F5
:1025900078018F5F809378010E94A40560C28091CA
:1025A000510190915201A0915301B0915401E091D9
:1025B0002101F0E083FF2FC0ED54FA4F8081882382
:1025C000A9F080912101833049F46091B605909182
:1025D000220120916F018091B6052EC020916F01DC
:1025E000E0912101F0E0ED54FA4F45C080912101C6
:1025F000833061F48091B505882329F02091B505D9
:102600008091B4054BC08091B40552C080916F0198
:102610002091B40571C0EA54FA4F8081882391F16A
:1026200080912101833001F56091B90590912201DB
:1026300020916F018091B90570E045E050E0491BA1
:10264000510930E0281B3109429FC001439F900D82
:10265000529F900D112497FD03969595879595951A
:102660008795860F971F50C020916F01E09121013F
:10267000F0E0EA54FA4F808190E0820F911D959529
:10268000879542C080912101833091F58091B805F2
:10269000882361F02091B8058091B70530E0220FC2
:1026A000331F281B31092E5F3F4F09C08091B705AA
:1026B00090E001969C01220F331F280F391F809153
:1026C000220160916F0170E0621B730B45E050E0E6
:1026D000481B5109649FC001659F900D749F900D28
:1026E00011249695879596958795820F931F0CC018
:1026F00080916F012091B70590E0820F911D820FAC
:10270000911D01969595879520916F0130E02817CE
:10271000390718F480916F0190E02091740130E046
:102720002817390710F59091770180916F0198175C
:1027300090F040910001509101016091020170916F
:10274000030180916D0190E0A0E0B0E048175907C7
:102750006A077B0750F48091510190915201A0913A
:102760005301B091540194FF2FC080912201823017
:1027700058F1409100015091010160910201709166
:1027800003018091490190914A01A0914B01B091C0
:102790004C01481759076A077B07B0F08FEF0E947A
:1027A00094068091000190910101A0910201B091E5
:1027B00003010296A11DB11D8093490190934A0126
:1027C000A0934B01B0934C010E94D1010E94A4053B
:1027D00080912201823008F042C19091770180916E
:1027E0006F01981798F0409100015091010160919C
:1027F00002017091030180916D0190E0A0E0B0E0D2
:10280000481759076A077B0708F024C180915101D6
:1028100090915201A0915301B091540194FF1FC1B6
:1028200019C10E94D1010E94A4058091510190918B
:102830005201A0915301B091540184FD29C08091AF
:10284000510190915201A0915301B091540183FF25
:102850000AC08091D60581111BC08091E505909139
:10286000E6050497A8F48091510190915201A0913E
:102870005301B091540183FDEDC08091D7058111C2
:1028800007C08091E5059091E605049708F4E2C041
:102890008DEF0E949406DEC00E94D1010E94A40523
:1028A0008091510190915201A0915301B091540136
:1028B00094FFD5C08091510190915201A091530194
:1028C000B091540184FD4BC080915101909152010F
:1028D000A0915301B091540183FF1BC08091D60594
:1028E000811113C08091000190910101A09102011A
:1028F000B09103018F3A9105A105B10580F5809152
:10290000E5059091E605049750F58091D605811173
:1029100026C08091510190915201A0915301B09134
:10292000540183FD9CC08091D705811113C0809113
:10293000000190910101A0910201B0910301823D3B
:102940009105A105B10558F48091E5059091E60542
:10295000049728F48091D705882309F480C08DEF6F
:102960000E949406299A4598439A8091510190912A
:102970005201A0915301B0915401A2608093510182
:1029800090935201A0935301B09354014498109234
:102990008000B19A80916F008D7F80936F0080914D
:1029A000000190910101A0910201B09103018F3FBC
:1029B0009105A105B10509F058F4809100019091AD
:1029C0000101A0910201B091030180936E0142C008
:1029D0008FEF80936E013EC0809151019091520122
:1029E000A0915301B091540191FF39C033C00E94AE
:1029F000A40580E00E946A05409100015091010108
:102A000060910201709103018091490190914A0106
:102A1000A0914B01B0914C01CC96A11DB11D48175E
:102A200059076A077B07B0F440916701509168012C
:102A30008091650190916601209165013091660158
:102A400063E0369527956A95E1F7821B930B48174B
:102A5000590728F0809178018F5F809378018091E9
:102A600078018A3008F442C180917801813108F000
:102A70003DC180917B01873039F0E0907B01F12CE2
:102A80004FEFE41AF40A02C0E12CF12C80917B0193
:102A9000E0917B01F0E0EE0FFF1F843018F4E35566
:102AA000FE4F02C0E356FE4F20813181ACE1B0E021
:102AB0000E94223029E130E040E050E00E94FA2FED
:102AC00080917C0181113FC0E0917B01F0E0EE0F2D
:102AD000FF1FEB55FE4F80819181A0E0B0E082178F
:102AE0009307A407B50778F1E0917B01F0E0EE0FC2
:102AF000FF1FE654FE4F808191818E35914018F181
:102B0000D701AA0FBB1FA654BE4F8D919C91119760
:102B10008E359140C0F0E0917B01F0E0EE0FFF1F99
:102B2000E654FE4F408151812D913C91C901880F9F
:102B3000991F820F931F969587954817590718F08C
:102B400086E080936C0180916C01882309F4CEC0EB
:102B50008091510190915201A0915301B091540183
:102B600083FF54C08091D60581110BC080915F0115
:102B7000909160018132934020F08091AF0581FDFA
:102B8000A5C08091D605882319F12091D6058091A2
:102B9000D80530E08F7090E028173907CCF480E03A
:102BA00090E020E233E04091D60550E0841795078D
:102BB0000CF061C0FC01EE0FFF1FE951FA4F40819C
:102BC00051814217530710F4208131810196EBCFD8
:102BD0002091D6058091D80530E08F7090E02817BD
:102BE00039070CF47EC0E0905F01F09060010E9414
:102BF0004308E82FF0E0EE0FFF1FE951FA4F808104
:102C000091818E159F0508F06CC05CC08091D7053E
:102C100081110BC080915F019091600181329340DE
:102C200020F08091AF0581FD51C08091D7058823A8
:102C300071F12091D7058091D90530E08F7090E037
:102C40002817390724F580E090E020E233E0409136
:102C5000D70550E08417950774F4FC01EE0FFF1FB1
:102C6000E550FA4F408151814217530710F42081FB
:102C700031810196ECCF80915F019091600128171E
:102C80003907A0F58091AF0581FF30C01FC02091AA
:102C9000D7058091D90530E08F7090E0281739076B
:102CA00004F1E0905F01F09060010E944308E82F7A
:102CB000F0E0EE0FFF1FE550FA4F808191818E15F5
:102CC0009F0578F48091AF0581FF0BC083E080936E
:102CD0007C010E940D0481E18093780110926C01C7
:102CE00005C080916C01815080936C01809100013E
:102CF00090910101A0910201B09103018A3F9105D9
:102D0000A105B10578F5C0900001D0900101E090D7
:102D10000201F090030120915F0130916001AAE966
:102D2000B9E10E94223070588F4F9F4FAA27BB27CE
:102D300096012A5D3D4FF901ED5FFE4F8083809142
:102D4000000190910101A0910201B0910301209135
:102D50007401FC01EA5DFD4F218710923001109251
:102D60002F0191C0809178018E3008F48CC0809141
:102D70007801813108F087C0809151019091520112
:102D8000A0915301B091540183FF0AC02091D60550
:102D90008091D80530E08F7090E028173907ACF4A7
:102DA0008091510190915201A0915301B091540131
:102DB00083FD69C02091D7058091D90530E08F70DF
:102DC00090E0281739070CF45EC060910001709103
:102DD000010180910201909103016A5F71098109EB
:102DE000910934E6C32ED12CE12CF12CA7019601D8
:102DF0000E94FA2F4B015C0186E9880E911CA11CF0
:102E0000B11C20915F0130916001AAE9B9E10E94F3
:102E1000223070588F4F9F4FAA27BB2794012A5DFD
:102E20003D4FF901ED5FFE4F80836091000170918D
:102E3000010180910201909103016A5F710981098A
:102E40009109A70196010E94FA2F6A567F4F8F4F72
:102E50009F4F20917401FB01EA5DFD4F2187609136
:102E60000001709101018091020190910301695F5D
:102E7000710981099109A70196010E94FA2F7093A7
:102E8000300160932F018091000190910101A09188
:102E90000201B09103018F3F9F4FAF4FBF4F99F099
:102EA0008091000190910101A0910201B091030174
:102EB0000196A11DB11D8093000190930101A09383
:102EC0000201B0930301FF91EF91CF91BF91AF91B8
:102ED0009F918F917F916F915F914F913F912F9132
:102EE000FF90EF90DF90CF90BF90AF909F908F902A
:102EF0000F900FBE0F901F9018951F920F920FB654
:102F00000F9211242F933F934F935F938F939F932F
:102F1000409184005091850080917801833020F0A9
:102F2000809178018A3020F0809178018531F1F428
:102F300080918000807C803CC9F4809165019091F3
:102F400066012091670130916801840F951F821BF3
:102F5000930B909389008093880080E88093800091
:102F600080916F008D7F80936F000BC080917801FE
:102F70008A3011F08091780180916F008D7F80936D
:102F80006F009F918F915F914F913F912F910F9083
:102F90000FBE0F901F9018951F920F920FB60F92B1
:102FA00011248F939F93AF93BF93809181008F7B68
:102FB0008093810080916F008B7F80936F00B59A22
:102FC00080916F00806280936F0088E08093690039
:102FD000E19A82E08DBB80917B018F5F80937B01C2
:102FE00080917B01883098F010927B018091510193
:102FF00090915201A0915301B0915401846080934B
:10300000510190935201A0935301B0935401BF9189
:10301000AF919F918F910F900FBE0F901F901895B9
:103020001F920F920FB60F9211242F933F934F933D
:103030005F936F937F938F939F93AF93BF93EF9320
:10304000FF9380918400909185004B9910C0E0918E
:103050007B01F0E0EE0FFF1FE05AF94F9183808370
:103060008CE0809369008AE0809325066BC0E09134
:103070007B01F0E0EE0FFF1FE653FE4F918380834C
:10308000E0917A01F0E0EE0FFF1FE653FE4F8081E2
:103090009181E0917A01F0E0EE0FFF1FE05AF94FC5
:1030A000208131810596821B930B6AE070E00E94BB
:1030B000D22FE0917B01F0E0EE0FFF1FE653FE4FB1
:1030C00080819181E0917B01F0E0EE0FFF1FE05ADB
:1030D000F94F20813181821B930B8617970720F4CB
:1030E00088E0809369002EC0E0917B01F0E0EE0F54
:1030F000FF1FE653FE4F20813181E0917B01F0E01C
:10310000EE0FFF1FE05AF94FA081B181E0917A01E3
:10311000F0E0EE0FFF1FE653FE4F80819181E091BA
:103120007A01F0E0EE0FFF1FE05AF94F4081518124
:103130002A1B3B0B841B950B861B970B821793074F
:1031400008F41DBAFF91EF91BF91AF919F918F91BC
:103150007F916F915F914F913F912F910F900FBE93
:103160000F901F9018951F920F920FB60F92112477
:10317000CF92DF92EF92FF920F931F932F933F9383
:103180004F935F936F937F938F939F93AF93BF936F
:10319000EF93FF9380917A0084FFC1C00091780083
:1031A0001091790080917C008770E1F487E480932E
:1031B0007C0086ED80937A00109326010093250110
:1031C0008091510190915201A0915301B09154010D
:1031D00090648093510190935201A0935301B09356
:1031E00054019DC0809136018A3F90F08091780112
:1031F000863040F0809178018D3050F080917801D8
:10320000853131F01092360180E480937C0003C058
:1032100087E480937C0020E030E086ED80937A00A4
:10322000809169018034C8F480913D0190913E0104
:10323000A0913F01B0914001800F911FA21FB31FC9
:1032400080933D0190933E01A0933F01B0934001D4
:10325000809169018F5F8093690180916901803459
:10326000D9F480913D0190913E01A0913F01B09130
:1032700040018096A11DB11D46E0B695A795979592
:1032800087954A95D1F79093050180930401809129
:1032900069018F5F8093690180910401909105011C
:1032A000A0E0B0E0081719072A073B0768F08091F3
:1032B00004019091050168017901C81AD90AE10851
:1032C000F108C701B6010AC06091040170910501BF
:1032D00080E090E0601B710B820B930BC090450166
:1032E000D0904601E0904701F09048019B01AC016D
:1032F0000E94B62F6C0D7D1D8E1D9F1D6093450194
:103300007093460180934701909348018091590141
:1033100090915A01019690935A018093590180919E
:103320006A018F5F80936A0180916A018A3008F494
:10333000FFC010926A018091B5019091B601A091F1
:10334000B701B091B801833E9440A105B10580F466
:103350008091B5019091B601A091B701B091B801EB
:10336000892B8A2B8B2BB9F080917801811113C0A6
:103370008091B5019091B601A091B701B091B801CB
:103380000197A109B1098093B5019093B601A0936B
:10339000B701B093B8018091B901882329F08091D9
:1033A000B90181508093B9018091B901833081F4D2
:1033B00080917C0181110CC0809181008F7B809372
:1033C0008100B59A80916F00806280936F0014C075
:1033D0008091B901811110C080917C0181110CC0D4
:1033E0008091AF0581FF08C083E080937C010E943B
:1033F0000D0481E18093780180912506882349F0AE
:103400008091B901853028F0809125068150809304
:10341000250680913C01882329F080913C01815050
:1034200080933C0180913B01882329F080913B01EE
:10343000815080933B01809136018A3F28F480912E
:1034400036018F5F8093360180913801882329F0FF
:103450008091380181508093380180913801811129
:103460002BC05F9B16C05F9880913901882329F09B
:103470008091390181508093390180913901811106
:1034800004C08FEF8093380117C08FE38093380119
:1034900013C080913A01882369F05F9A8FE380938B
:1034A000380180913901811107C080913A018093E0
:1034B000390102C01092390180913301882329F02B
:1034C00080913301815080933301809133018111C8
:1034D0002FC080913501882359F15D9B16C05D98FE
:1034E00080913401882329F08091340181508093A8
:1034F000340180913401811104C08FEF8093330136
:1035000017C08FE38093330113C080913501882366
:1035100069F05D9A8FE380933301809134018111CA
:1035200007C0809135018093340102C010923401AC
:10353000FF91EF91BF91AF919F918F917F916F918B
:103540005F914F913F912F911F910F91FF90EF90BD
:10355000DF90CF900F900FBE0F901F9018951F9285
:103560000F920FB60F9211242F933F934F935F93B7
:103570006F937F938F939F93AF93BF93EF93FF933B
:103580004EB54093200180911F0190E08730910556
:1035900008F0F2C0FC01ED59FF4F0C941C3047FFBE
:1035A00012C0242F2F7720931E0130E0C90101970C
:1035B00082239323892B01F540931E014EBD85E0A4
:1035C00080931F01D9C040FF05C08FEF8EBD8FEFE4
:1035D00093E006C041FF10C080E18EBD80E190E025
:1035E00090931D0180931C018091200180931B0109
:1035F00081E080931F01C0C01EBCBEC080911B0132
:103600004813B8C040FF0EC083E08EBD86E292E052
:1036100090931A018093190180911F018F5F80930D
:103620001F01AAC041FFA6C01EBC89E091E00E9414
:103630001B0689E091E090931A0180931901809113
:103640001F018F5F80931F0197C04D3F09F092C00B
:10365000109208011092070183E080931F013091BE
:10366000200120911B0180910701909108013217E0
:1036700019F0009709F07EC020911C0130911D01C6
:103680008217930790F4E0911901F0911A01E80F65
:10369000F91F80818EBD80910701909108010196EC
:1036A000909308018093070167C08217930709F080
:1036B00063C08DEF8EBD84E080931F015DC080915B
:1036C0001E0185FF04C04F71409306010EC083FFA9
:1036D00005C08FEF840F8A3F80F402C084FF03C0CF
:1036E0004093060102C0481308C08DEF8EBD809143
:1036F0001F018F5F80931F013FC01EBC10921F01EE
:103700003BC04D3FB9F580911E0183FF05C08091FC
:1037100006018093B0052EC084FF05C0809106018C
:103720008093AF0527C085FF05C080910601809377
:10373000AE0520C0982F9F7719F41092AE051AC0DD
:10374000282F237051F09091AE059C7F9093AE0589
:103750009091AE05922B9093AE0582FF06C08091AA
:10376000AE0584608093AE0505C08091AE058B7F69
:103770008093AE0510921F01FF91EF91BF91AF9121
:103780009F918F917F916F915F914F913F912F9179
:103790000F900FBE0F901F901895CF93DF93CDB76A
:1037A000DEB764970FB6F894DEBF0FBECDBF84B707
:1037B000877F84BF88E10FB6F894809360001092F1
:1037C00060000FBEF89480E8809361001092610061
:1037D00088E2EDE7F1E0DF011D928A95E9F784E2E6
:1037E000E6E2F6E0DF011D928A95E9F780E1E5EA7D
:1037F000F1E0DF01282F1D922A95E9F79CE3EAED1D
:10380000F1E0DF011D929A95E9F7EAEBF1E0DF01C3
:10381000282F1D922A95E9F7E0E5F6E0DF01282F31
:103820001D922A95E9F7E6E1F2E0DF01282F1D92CB
:103830002A95E9F7E0E6F6E0DF01282F1D922A95A8
:10384000E9F7EAECF1E0DF01282F1D922A95E9F76C
:10385000DE011196BA8BA98B1D928A95E9F786E055
:10386000EAE4F6E0DF011D928A95E9F74FEF53E0B5
:1038700060E070E086E292E00E943C3080912E028F
:10388000863249F086E280932E0260912E0288E013
:1038900090E00E9478302598249A2C9880E29EE44B
:1038A0000197F1F71D9918C02C9A80E29EE40197C8
:1038B000F1F71D9B11C08091510190915201A0918F
:1038C0005301B09154018061809351019093520152
:1038D000A0935301B093540124988DB58EBB8EB53F
:1038E0008EBB82EC8CBD8091AE0580FF17C08091AD
:1038F000510190915201A0915301B0915401806403
:103900008093510190935201A0935301B0935401BD
:103910008091AE058E7F8093AE0515C08091AE0577
:1039200081FF11C08091510190915201A0915301EA
:10393000B091540180618093510190935201A09302
:103940005301B09354018091AE0582FF11C0809164
:10395000510190915201A0915301B09154018062A4
:103960008093510190935201A0935301B09354015D
:1039700015B880E388B91BB882E184B986EF8AB9AB
:103980008EE387B91092800082E88093810080E204
:1039900080936F0082E08093B00093E09093B10039
:1039A00094E69093B3008093700098E09093690040
:1039B0008DBB86E880937A0010927B008091510144
:1039C00090915201A0915301B091540185FF09C01B
:1039D0001092B5011092B6011092B7011092B80181
:1039E00089C05E9A86E480937C0080E29EE4019721
:1039F000F1F786ED80937A0080917A0084FFFCCF06
:103A000060917800709179005E9880E090E00E946B
:103A1000A12D20E030E040E85AE30E94782E0E9479
:103A2000382E2091AE0523FD09C020E030E04BE4A4
:103A300053EC0E94782E6B017C0103C0C12CD12C69
:103A400076016091B00570E080E090E00E94A12DC9
:103A500020E030E040E752E40E94782E20E030E0A1
:103A600040EA50E40E94A82C9B01AC01C701B601BA
:103A70000E942F2E87FD0DC082EE94E0A0E0B0E002
:103A80008093B5019093B601A093B701B093B801AC
:103A900031C02091B00530E0ACE3B0E00E942230AC
:103AA00065507109810991090E94A12DA701960114
:103AB0000E94A82C20E030E04AE753E40E94782ED0
:103AC00020E030E44CE954E40E94A92C0E94752DBA
:103AD0006093B5017093B6018093B7019093B801DC
:103AE00080917C01811106C082E080937C018AE193
:103AF0008093780187E480937C0086ED80937A0040
:103B00002DE088E190E00FB6F894A89580936000CE
:103B10000FBE2093600088E08093B901B59AB99AEE
:103B2000E19A78948091510190915201A0915301B2
:103B3000B091540182FFF6CF8091650190916601AA
:103B40008338934208F0A6C08091510190915201B0
:103B5000A0915301B09154018860809351019093DA
:103B60005201A0935301B09354018091510190915F
:103B70005201A0915301B091540186FF88C080E0AA
:103B80000E9456081092D60588E38093DB052AE050
:103B9000E6E8F5E0DF01322F1D923A95E9F784E17E
:103BA000E7EEF5E0DF011D928A95E9F71092DD0559
:103BB0001092E2051092E10510921306109214067D
:103BC000109215061092160610921B0610921C06F3
:103BD00010921D0610921E068091D4058F5F80936F
:103BE000D4058091510190915201A0915301B0915F
:103BF00054018F7B8093510190935201A093530104
:103C0000B09354011092E6051092E5051092240637
:103C100010922306EAE9F5E0DF01322F1D923A9572
:103C2000E9F78091AE0584FF03C02093D80503C057
:103C300086E08093D80581E08093B10582E380938C
:103C4000B20587EE91E19093100680930F061092D3
:103C5000DF051092B4051092B5051092B6051092CA
:103C6000BA051092BB051092BC0580E18093C00597
:103C70001092C1051092C2051092C3051092C4059E
:103C800085E0EAECF5E0DF011D928A95E9F7809185
:103C9000D805A5C08091510190915201A091530186
:103CA000B0915401877F8093510190935201A0936A
:103CB0005301B09354018091510190915201A09110
:103CC0005301B091540186FF88C080E00E945608DD
:103CD0001092D70588E38093DC052AE0E0E9F5E05F
:103CE000DF01322F1D923A95E9F784E1EBEFF5E021
:103CF000DF011D928A95E9F71092DE051092E40526
:103D00001092E305109217061092180610921906E9
:103D100010921A0610921F06109220061092210689
:103D2000109222068091D5058F5F8093D5058091F2
:103D3000510190915201A0915301B09154018F7B98
:103D40008093510190935201A0935301B093540179
:103D50001092E6051092E5051092240610922306B3
:103D6000E4EAF5E0DF01322F1D923A95E9F7809100
:103D7000AE0584FF03C02093D90503C086E080937D
:103D8000D90581E08093B10582E38093B3058CE788
:103D900095E190931206809311061092E00510921F
:103DA000B7051092B8051092B9051092BD05109292
:103DB000BE051092BF0580E18093C5051092C6052F
:103DC0001092C7051092C8051092C90585E0EFEC66
:103DD000F5E0DF011D928A95E9F78091D9058A30D7
:103DE00021F48091AE05806103C08091AE058F7E85
:103DF0008093AE0588B1877D88B9412C512C320162
:103E000000E010E0212C312C1B8AC12CD12CA8956C
:103E100080917C010E94670280917801833008F4D0
:103E2000CAC080917801813108F0C5C080917C01C1
:103E30008111C1C08091510190915201A091530113
:103E4000B091540183FF03C08091DB0502C08091D3
:103E5000DC0580917C0181110EC0809125068111C5
:103E60000AC0809178018A3030F48091AF0586FFD6
:103E700002C088E099C080917C01811108C08091C6
:103E80002506811104C08091AF0584FD8CC080910E
:103E90007C0181110FC0809178018D3058F48091A0
:103EA0006101909162018132934020F08091AF05D1
:103EB00085FD13C080917C01811111C08091780132
:103EC0008D3068F08091AF0585FF09C080915B015E
:103ED00090915C018F35914010F087E065C0809132
:103EE0007C01811132C0809178018D3070F1809118
:103EF000510190915201A0915301B091540183FF5F
:103F000007C0909176018091DB058695981788F01F
:103F10008091510190915201A0915301B0915401AF
:103F200083FD13C0909176018091DC0586959817EA
:103F300060F48091AF0582FF08C08091610190918B
:103F400062014E9710F084E02FC080917C018111B6
:103F500032C0809178018D3070F180915101909143
:103F60005201A0915301B091540183FF07C0909179
:103F700076018091DB058695981788F08091510134
:103F800090915201A0915301B091540183FD13C04F
:103F9000909176018091DC058695981760F4809168
:103FA000AF0584FF08C086E080937C010E940D0469
:103FB00081E1809378018091780190E08B319105C7
:103FC00010F00C94012CFC01E659FF4F0C941C30AE
:103FD0008091B5019091B601A091B701B091B8015F
:103FE000892B8A2B8B2B09F050C180915101909124
:103FF0005201A0915301B09154019F7E80935101D1
:1040000090935201A0935301B093540180915101B8
:1040100090915201A0915301B0915401906280930C
:10402000510190935201A0935301B0935401109207
:104030005E0110925D0110926E0110927301109258
:10404000740110925C0110925B0110924101109278
:10405000420110924301109244011092700180912C
:10406000510190915201A0915301B09154019E7F52
:104070008093510190935201A0935301B093540146
:104080008091510190915201A0915301B09154013E
:104090009D7F8093510190935201A0935301B0935F
:1040A00054018091510190915201A0915301B0911E
:1040B0005401A1608093510190935201A093530148
:1040C000B093540110922C0110922B018091370172
:1040D0008093840510922201109221018AEFE9E277
:1040E000F3E0DF01282F1D922A95E9F7EFE2F2E0D5
:1040F000DF011D928A95E9F784E2E6E2F6E011928B
:104100008A95E9F78091510190915201A091530154
:10411000B091540183FF3EC08091510190915201B2
:10412000A0915301B091540184FF03C01092790112
:104130001DC08091D605811108C081E0809379016E
:104140001092B4051092BA0511C02091D605809145
:10415000D80530E08F7090E0281739071CF4809163
:10416000D60502C00E9443088093790180911B0606
:1041700090911C06A0911D06B0911E060196A11DEE
:10418000B11D80931B0690931C06A0931D06B0934F
:104190001E063DC08091510190915201A0915301A2
:1041A000B091540184FF03C0109279011DC0809129
:1041B000D705811108C081E0809379011092B7057D
:1041C0001092BD0511C02091D7058091D90530E02E
:1041D0008F7090E0281739071CF48091D70502C032
:1041E0000E9443088093790180911F0690912006D8
:1041F000A0912106B09122060196A11DB11D8093C8
:104200001F0690932006A0932106B093220680916A
:1042100065019091660120916501309166013695A6
:10422000279536952795821B930B90936801809371
:1042300067018091650190916601880F892F881F21
:10424000990B919580937201809169018134E0F31B
:1042500010923D0110923E0110923F0110924001D8
:1042600010926901809169018134E0F38AE08093C2
:1042700025068091780181110C94FF2B80917801A3
:104280008F5F809378010C94FF2B80915101909166
:104290005201A0915301B091540195FD02C00C94BC
:1042A000012C0C94782B5A985C9A8DE080933C01F9
:1042B0008091510190915201A0915301B09154010C
:1042C00085FF02C083E301C08FE380933B018091AF
:1042D0007801813011F00C94012C0C94552A8091B6
:1042E0003C0181110C94012C8BB18B7E8BB9809198
:1042F000510190915201A0915301B091540185FF59
:104300000DC080913B01811109C080917C01811118
:1043100031C08091290190912A010DC080913B010B
:1043200081110C94012C80917C01811123C080911A
:104330006101909162014597E8F08091AF0580FF9F
:1043400019C08091510190915201A0915301B091F7
:104350005401A2608093510190935201A0935301A4
:10436000B093540181E080937C010E940D0481E1AF
:104370000C94582A8AE0809325061092000110922E
:104380000101109202011092030110924901109252
:104390004A0110924B0110924C01809178018230B9
:1043A00011F00C94012C0C94552AB9EFBD1588F02E
:1043B0008D2D90E08D5F9E4FBC016050704042E0BB
:1043C00050E08A5D9D4F0E946E30D394D3940C943C
:1043D000012CE9EFEC1580F08C2D90E00996BC01E2
:1043E0006050704042E050E08A5D9D4F0E946E3008
:1043F000C394C3940C94012C80915101909152016B
:10440000A0915301B09154019F7D809351019093ED
:104410005201A0935301B093540180912101833044
:1044200059F48091B105833020F48091B1058F5FFC
:1044300001C081E08093B1058091510190915201BA
:10444000A0915301B091540183FF6FC02091D60514
:104450008091D80530E08F7090E02817390784F4F8
:10446000809178018D3061F48091510190915201D9
:10447000A0915301B091540184FD02C00C94552ABF
:104480009091D6058091D8058F709813B9C080910E
:10449000130690911406A0911506B0911606019688
:1044A000A11DB11D8093130690931406A0931506C9
:1044B000B09316068091510190915201A091530141
:1044C000B091540184FD9CC0209121018091B205DE
:1044D000F2E32F9F9001112490E08217930724F4B8
:1044E0008091B2058F5F0FC0209121018091B205AC
:1044F00092E3299F9001112490E0281739072CF4AA
:104500008091B20581508093B2058091B2058739C0
:1045100018F086E98093B2058091B205823308F0E5
:104520006FC082E38093B2056BC02091D705809164
:10453000D90530E08F7090E02817390774F4809126
:1045400078018D3051F48091510190915201A091E8
:104550005301B091540184FFA8C79091D705809171
:10456000D9058F7098134CC080911706909118064A
:10457000A0911906B0911A060196A11DB11D809354
:10458000170690931806A0931906B0931A06809107
:10459000510190915201A0915301B091540184FDB9
:1045A0002FC0209121018091B305A2E32A9F9001A1
:1045B000112490E08217930724F48091B3058F5F54
:1045C0000FC0209121018091B305B2E32B9F900190
:1045D000112490E0281739072CF48091B3058150FD
:1045E0008093B3058091B305873918F086E98093ED
:1045F000B3058091B305823318F482E38093B30549
:10460000809178018D3011F00C94012C80E150C71D
:104610008091510190915201A0915301B0915401A8
:104620009091210183FF38C382E3989F802D11244C
:104630008093B2058091D605811108C080916101F7
:10464000909162019093E2058093E1053091DB0542
:104650002091D605809176016091D60590E0329F39
:10466000800D911D112470E06F5F7F4F0E94E62F37
:104670006093DB058091DB05843120F08091DB05C0
:104680008B3518F088E38093DB05E091D605F0E0E8
:1046900080912B0190912C01EE0FFF1FE951FA4FF1
:1046A00091838083E091D605F0E080916E01EA5716
:1046B000FA4F80838091D6058F5F8093D6058091D5
:1046C000D605813009F063C08091E5059091E6053B
:1046D000049708F056C020E030E040E050E08BEA5C
:1046E00090E0FC01EA5DFD4F6185260F311DED5F15
:1046F000FE4F6081460F511D01968F3A910589F753
:104700008AE0849F8001859F100D11240E5F1F4F4A
:1047100016950795169507952E5F3F4F3695279569
:10472000369527958091D8058F708A3031F1F090B9
:10473000DB054091DB056091E1057091E205C80160
:1047400096958795F901E41BF109E69FA001E79F83
:10475000500DF69F500D1124840F951FB8010E9433
:10476000D22FF60EF0929B0540919B0550E0C901B7
:1047700002978417950708F040C3225020939B05A9
:104780003CC38091DB058D5F80939B0536C3809190
:10479000D605823008F40FC22091D6058091D80545
:1047A00030E08F7090E0281739070CF004C2609158
:1047B00021018091D60581500E9445078091D8053E
:1047C00087FD1AC04091DB0500E010E08FE090E02B
:1047D000FC01EA5DFD4FDF01AD5FBE4F2C9130E083
:1047E0000217130710F40C9110E02185421720F0F6
:1047F00001968A3F910561F78091D60581500E940C
:104800000007F82E8091D60581500E94E106F8122B
:1048100022C08091D80587FD1EC08091D6058230C8
:1048200031F08091DF0590E008171907A0F480911E
:10483000D60581500E940007833021F48091D6056F
:1048400063E04FC08091D60581500E94000790918F
:10485000D60561E02AC08091D60581500E940007EC
:10486000F82E8091D60581500E94E106F81220C0F2
:104870008091D60581500E9400078230C8F0809157
:10488000D80587FD15C08091D605833088F08091CA
:10489000DF0590E00817190758F08091D605815080
:1048A0000E9400079091D6056FEF680F892F19C0FD
:1048B0008091D60581500E940007F82E8091D60580
:1048C00081500E94E1068F1520F08091D80587FF66
:1048D0000AC08091D60581500E940007682F809100
:1048E000D6050E941F078091D60581500E940007BF
:1048F000F82E8091D60581500E94E106F81232C050
:104900008091D80587FD2EC08091D605823031F088
:104910008091DF0590E00817190720F580912301A9
:10492000909124019093100680930F0680910F06BA
:10493000909110068B36984130F02AE638E130939A
:10494000100620930F0680910F0690911006873E67
:10495000914108F089C087EE91E190931006809311
:104960000F0682C08091D60581500E940007F82E64
:104970008091D60581500E94E106F8121AC08091FC
:10498000D60582500E940007F82E8091D6058250ED
:104990000E94E1068F1568F48091D80587FD09C053
:1049A00080912301909124019093100680930F062B
:1049B00041C08091D80587FF57C0BB24B394E12C38
:1049C000F12C8091D605B816A8F48B2D0E94000713
:1049D000A82E8B2D0E94E106A8120AC08B2D0E94E2
:1049E000000790912101891303C03FEFE31AF30AF6
:1049F000B394E7CF40910F06509110062091230108
:104A000030912401B70161507109649FC001659F15
:104A1000900D749F900D1124820F931FBC0180E0B4
:104A200090E0970140E050E00E94FA2F309310068A
:104A300020930F0680910F06909110068B369841B7
:104A400030F0EAE6F8E1F0931006E0930F0680916B
:104A50000F0690911006873E914130F427EE31E128
:104A60003093100620930F068091D80587FF00939E
:104A7000DF058091D6050E94E106F82E8091D605CB
:104A800081500E9400078F15C0F48091D8052091B5
:104A9000D6058F7090E0821B9109049774F4809181
:104AA000D80587FD0AC08091D8058F70863029F41B
:104AB0008091D805807F895F30C08091D6050E94A3
:104AC000E106F82E8091D60581500E940007F81269
:104AD00026C08091D60581500E94E106F82E809173
:104AE000D60581500E940007F81219C08091D605A2
:104AF0000E94E106833099F48091D80587FD0FC0AC
:104B00008091D605823059F48091D8058F70863017
:104B100031F48091D805807F8B5F8093D805809198
:104B2000D60581500E940007F82E8091D60581504D
:104B30000E94E106F8121EC08091D6050E94E1068F
:104B4000F82E8091D60581500E940007F81630F4A7
:104B50008091D80580688093D8050CC08091D605D7
:104B60000E94E106F82E8091D60581500E94E10650
:104B7000F81671F38091D80587FD0AC0E091D6053B
:104B8000F0E0A091D605B0E0A756BA4F8C9110C0C6
:104B90008091D8058F708A3009F45EC3E091D60504
:104BA000F0E0A091D605B0E0A756BA4F8C918350A3
:104BB000E656FA4F4AC39091D6058091D8058F707A
:104BC0009813C8C3609121018091D60581500E943D
:104BD0004507E091D805EF70F0E0EE0FFF1FEB51B5
:104BE000FA4FA080B1808091D8058F7081500E94CB
:104BF0005608812C99249394E92CF12C2091D80506
:104C00002F7030E021503109E216F30624F5892D8A
:104C10000E940007282F892D2C8B0E94E1062C89E9
:104C2000281317C0892D0E940007209121018213AB
:104C300010C08394F701EE0FFF1FE951FA4F208156
:104C400031812A153B0528F4A080B180892D0E946E
:104C500056089394D1CF40910F06509110062091A1
:104C6000230130912401882D90E00197849FB001A9
:104C7000859F700D949F700D1124620F731F80E04B
:104C800090E0282D30E040E050E00E94FA2F309371
:104C9000100620930F065EC382E3989F802D112497
:104CA0008093B3058091D705811108C0809161017F
:104CB000909162019093E4058093E3053091DC05C7
:104CC0002091D705809176016091D70590E0329FC1
:104CD000800D911D112470E06F5F7F4F0E94E62FC1
:104CE0006093DC058091DC05843120F08091DC0547
:104CF0008B3518F088E38093DC05E091D705F0E070
:104D000080912B0190912C01EE0FFF1FE550FA4F7F
:104D100091838083E091D705F0E080916E01E057A8
:104D2000FA4F80838091D7058F5F8093D70580915C
:104D3000D705813009F06CC08091E5059091E605BA
:104D4000049708F055C020E030E040E050E08EECE1
:104D500090E0FC01EA5DFD4F6185260F311DED5F9E
:104D6000FE4F6081460F511D0196823D910589F7E6
:104D70008AE0849F8001859F100D11240E5F1F4FD4
:104D800016950795169507952E5F3F4F36952795F3
:104D9000369527958091D9058F708A3029F1F0904A
:104DA000DC054091DC056091E3057091E405C801E4
:104DB00096958795F901E41BF109E69FA001E79F0D
:104DC000500DF69F500D1124840F951FB8010E94BD
:104DD000D22FF60EF092A5054091A50550E0C9012D
:104DE00002978417950748F422502093A50505C023
:104DF0008091DC058D5F8093A5056091210180E0A5
:104E00000E9445076091210181E00E941F07A2C214
:104E10008091D705823008F42DC22091D70580916A
:104E2000D90530E08F7090E0281739070CF022C2C6
:104E3000609121018091D70581500E9445078091A2
:104E4000D90587FD1AC04091DC0500E010E08FE035
:104E500090E0FC01EA5DFD4FDF01AD5FBE4F2C919C
:104E600030E00217130710F40C9110E0218542176F
:104E700020F001968A3F910561F78091D705815016
:104E80000E940007F82E8091D70581500E94E1060C
:104E9000F81222C08091D90587FD1EC08091D705E8
:104EA000823031F08091E00590E008171907A0F4F6
:104EB0008091D70581500E940007833021F48091B2
:104EC000D70563E04FC08091D70581500E9400074D
:104ED0009091D70561E02AC08091D70581500E944A
:104EE0000007F82E8091D70581500E94E106F81244
:104EF00020C08091D70581500E9400078230C8F001
:104F00008091D90587FD15C08091D705833088F041
:104F10008091E00590E00817190758F08091D705B7
:104F200081500E9400079091D7056FEF680F892F7D
:104F300019C08091D70581500E940007F82E8091FA
:104F4000D70581500E94E1068F1520F08091D90588
:104F500087FF0AC08091D70581500E940007682F03
:104F60008091D7050E941F078091D70581500E942C
:104F70000007F82E8091D70581500E94E106F812B3
:104F800032C08091D90587FD2EC08091D70582302F
:104F900031F08091E00590E00817190720F5809125
:104FA0002301909124019093120680931106809121
:104FB0001106909112068D349D4130F08CE49DE1F4
:104FC000909312068093110680911106909112061B
:104FD0008C37954108F0A4C0ECE7F5E1F093120698
:104FE000E09311069DC08091D70581500E94000773
:104FF000F82E8091D70581500E94E106F81235C045
:105000008091D70582500E940007F82E8091D70525
:1050100082500E94E1068F1540F58091D90587FDE9
:1050200024C08091230190912401909312068093D3
:10503000110680911106909112068D349D4130F039
:105040002CE43DE130931206209311068091110665
:10505000909112068C37954108F062C08CE795E17B
:1050600090931206809311065BC08091D90587FF4B
:1050700057C0BB24B394E12CF12C8091D705B8160E
:10508000A8F48B2D0E940007A82E8B2D0E94E1060C
:10509000A8120AC08B2D0E9400079091210189134C
:1050A00003C09FEFE91AF90AB394E7CF40911106C4
:1050B000509112062091230130912401B7016150D3
:1050C0007109649FC001659F900D749F900D11241C
:1050D000820F931FBC0180E090E0970140E050E018
:1050E0000E94FA2F30931206209311068091110628
:1050F000909112068D349D4130F0ECE4FDE1F09387
:105100001206E093110680911106909112068C37D9
:10511000954130F42CE735E13093120620931106C7
:105120008091D90587FF0093E0058091D7050E9403
:10513000E106F82E8091D70581500E9400078F1557
:10514000C0F48091D9052091D7058F7090E0821B23
:105150009109049774F48091D90587FD0AC0809164
:10516000D9058F70863029F48091D905807F895FB9
:1051700030C08091D7050E94E106F82E8091D705B6
:1051800081500E940007F81226C08091D7058150F7
:105190000E94E106F82E8091D70581500E940007F9
:1051A000F81219C08091D7050E94E106833099F466
:1051B0008091D90587FD0FC08091D705823059F4C1
:1051C0008091D9058F70863031F48091D905807F28
:1051D0008B5F8093D9058091D70581500E9400078D
:1051E000F82E8091D70581500E94E106F8121EC06A
:1051F0008091D7050E94E106F82E8091D705815055
:105200000E940007F81630F48091D90580688093D9
:10521000D9050CC08091D7050E94E106F82E809137
:10522000D70581500E94E106F81671F38091D905E7
:1052300087FD0DC0E091D705F0E0A091D705B0E063
:10524000AD55BA4F8C91EC55FA4F808383C0809155
:10525000D9058F708A3019F40E946B077BC0E091EA
:10526000D705F0E0A091D705B0E0AD55BA4F8C91CD
:105270008350E9CF9091D7058091D9058F7098130D
:1052800069C0609121018091D70581500E94450736
:10529000E091D905EF70F0E0EE0FFF1FE750FA4FF5
:1052A000A080B1808091D9058F7081500E945608EE
:1052B000812C99249394E92CF12C2091D9052F70FD
:1052C00030E021503109E216F30624F5892D0E94C1
:1052D0000007282F892D2C8B0E94E1062C8928138A
:1052E00017C0892D0E94000720912101821310C050
:1052F0008394F701EE0FFF1FE550FA4F20813181B3
:105300002A153B0528F4A080B180892D0E945608FB
:105310009394D1CF40911106509112062091230110
:1053200030912401882D90E00197849FB001859FE2
:10533000700D949F700D1124620F731F80E090E038
:10534000282D30E040E050E00E94FA2F3093120602
:1053500020931106809178018F3009F052C2A5C0C8
:105360008091510190915201A0915301B09154014B
:10537000A0FF3DC08091000190910101A091020128
:10538000B0910301803A9C48A105B10580F180915C
:10539000510190915201A0915301B091540183FFAA
:1053A00026C08091DD05853010F54091E1055091D2
:1053B000E2057091DD0520915B0130915C01609107
:1053C000DD05749FC001759F900D1124820F931FFE
:1053D00070E06F5F7F4F0E94D22F7093E205609361
:1053E000E1058091DD058F5F8093DD0548C08091E8
:1053F000510190915201A0915301B0915401A0FF2D
:1054000000C28091000190910101A0910201B09130
:10541000030180339547A105B10508F4F2C18091DD
:10542000510190915201A0915301B091540183FD1B
:10543000E8C18091DE05853008F0E3C14091E305C5
:105440005091E4057091DE0520915B0130915C0183
:105450006091DE05749FC001759F900D1124820F2D
:10546000931F70E06F5F7F4F0E94D22F7093E4050F
:105470006093E3058091DE058F5F8093DE05809168
:10548000510190915201A0915301B0915401AE7F0E
:105490008093510190935201A0935301B093540112
:1054A000B0C18091B9018111ACC1809178018F5F49
:1054B00080937801A6C18091B9018111A2C1299A76
:1054C000F4CF8091B90181119CC18DEF0E949406A7
:1054D0004398459A8091510190915201A0915301B6
:1054E000B0915401AD7F8093510190935201A093EC
:1054F0005301B0935401449A8FEF9FEFDC018093E6
:10550000000190930101A0930201B09303018DE08B
:1055100080933C0187E1CCCF80913C01811171C126
:1055200088B1877D88B91092800029985C985A9A32
:105530008DE080933C01B9CF80913C01811161C124
:105540008BB18B7E8BB980917C01811104C082E08C
:1055500080937C0156C18091510190915201A0919C
:105560005301B09154019062809351019093520184
:10557000A0935301B093540198CF80917C01833064
:1055800031F080917C01823011F00E941905209148
:10559000B00530E0A8E9BAE30E9422306093B5017B
:1055A0007093B6018093B7019093B8018091B501D3
:1055B0009091B601A091B701B091B80188399A4392
:1055C000A105B10560F488E99AE3A0E0B0E080931A
:1055D000B5019093B601A093B701B093B801409084
:1055E000B5015090B6016090B7017090B80192EE8D
:1055F000491A94E0590A6108710857CF8091B501A2
:105600009091B601A091B701B091B801833E94404A
:10561000A105B10508F050C080917C01853009F4E6
:105620004BC080917C01893009F446C080916B01A8
:10563000843008F041C080917C01883001F5809170
:10564000510190915201A0915301B091540183FFF7
:1056500004C08091D60581110EC0809151019091B6
:105660005201A0915301B091540183FD25C0809156
:10567000D705882309F1809131018430E8F48091C5
:105680007C01833011F40E94190580917C018130E6
:1056900029F480916B018F5F80936B0180917C0175
:1056A000883029F4809131018F5F8093310110920D
:1056B0007C0110927801A5C0809151019091520116
:1056C000A0915301B091540195FF8AC08091B5011A
:1056D0009091B601A091B701B091B8014816590652
:1056E0006A067B0608F47CC080917C01811131C080
:1056F0008FE028E130E00FB6F894A8952093600081
:105700000FBE809360004AEF50E063E071E089E2F1
:1057100093E00E946E30A8954AEF50E069E070E097
:105720008FE292E00E946E308DE0A8E1B0E00FB60B
:10573000F894A895A09360000FBE809360008091BC
:10574000510190915201A0915301B09154019F7D5C
:105750009FCE80912F0190913001892B09F4C8CF01
:1057600080912F01909130018A569F4F582F4FEF13
:10577000480F26E930E0622F493F08F0B9CFD90140
:10578000AA5DBD4F19967C911997FC01EA5DFD4F0A
:10579000F1841996FC9219977187AD5FBE4F7C9189
:1057A000ED5FFE4FF080FC927083641301C0482FC0
:1057B000651301C0582F01968A3F910530F0809102
:1057C0002F01909130018A569F4F2F5F3F4F8217D4
:1057D000930710F4852F90E0293F310561F688CFBB
:1057E00080916901813468F010923D0110923E0170
:1057F00010923F01109240011092690102C0C12C29
:10580000D12C8091510190915201A0915301B091FE
:10581000540196FF83C08091510190915201A09153
:105820005301B09154019F7B809351019093520199
:10583000A0935301B0935401BB89EB2EF12C570177
:10584000AA0CBB1CE1E0F0E0EC0FFD1FAE0EBF1E8A
:10585000D5018D919C91281A390A8091250190914A
:10586000260160E00E94B002F50191838083280E3A
:10587000391E37FE03C01092370124C080915101B8
:1058800090915201A0915301B091540197FD12C023
:10589000FFEFEF1AFF0A25E02E9DC0012F9D900D0E
:1058A0001124820D931D2AE02E9DB0012F9D700DB5
:1058B000112404C0C101889660E570E00E94E62FC3
:1058C000609337012B89273018F42F5F2B8B12C080
:1058D0008091510190915201A0915301B0915401D6
:1058E00090688093510190935201A0935301B0931B
:1058F00054011B8A9091370180918405891720F407
:1059000080913701809384059091370180918505BE
:10591000891720F480913701809385058091780163
:10592000863060F0809178018E3010F40C94071F5F
:1059300080917801853111F40C94071F41EA50E001
:105940006EE573E084E895E00E944C300C94071FEC
:105950005058BB27AA270ED048C139D130F03ED1CC
:1059600020F031F49F3F11F41EF42EC10EF4E095A7
:10597000E7FB24C1E92F4AD180F3BA176207730706
:105980008407950718F071F49EF562C10EF4E09556
:105990000B2EBA2FA02D0B01B90190010C01CA01E9
:1059A000A0011124FF27591B99F0593F50F4503E94
:1059B00068F11A16F040A22F232F342F4427585F86
:1059C000F3CF469537952795A795F0405395C9F79E
:1059D0007EF41F16BA0B620B730B840BBAF0915056
:1059E000A1F0FF0FBB1F661F771F881FC2F70EC0F5
:1059F000BA0F621F731F841F48F4879577956795C8
:105A0000B795F7959E3F08F0B3CF9395880F08F0B0
:105A10009927EE0F9795879508950CD0E6C0DED0B4
:105A200040F0D5D030F021F45F3F19F0C7C05111DC
:105A300010C1CAC0EBD098F39923C9F35523B1F331
:105A4000951B550BBB27AA2762177307840738F0ED
:105A50009F5F5F4F220F331F441FAA1FA9F333D04C
:105A60000E2E3AF0E0E830D091505040E695001C00
:105A7000CAF729D0FE2F27D0660F771F881FBB1FBC
:105A8000261737074807AB07B0E809F0BB0B802D96
:105A9000BF01FF2793585F4F2AF09E3F510568F0E2
:105AA0008DC0D7C05F3FECF3983EDCF386957795C9
:105AB0006795B795F7959F5FC9F7880F911D9695E4
:105AC000879597F90895E1E0660F771F881FBB1F40
:105AD000621773078407BA0720F0621B730B840BED
